:100000000C9434000C943E000C943E000C943E0082
:100010000C943E000C943E000C943E000C943E0068
:100020000C943E000C943E000C943E000C943E0058
:100030000C943E000C943E000C943E000C943E0048
:100040000C943E000C943E000C943E000C943E0038
:100050000C943E000C943E000C943E000C943E0028
:100060000C943E000C943E0011241FBECFEFD8E04C
:10007000DEBFCDBF0E9440000C94CB000C9400006A
:10008000CF93DF930E946F000E948F000E949F0019
:10009000C0E9D1E081E090E061E070E00E9473008F
:1000A00081E060E070E00E94A50088E893E1FE0135
:1000B0003197F1F70197D9F781E090E060E070E0C7
:1000C0000E94730081E06FEF7FE70E94A50088E83F
:1000D00093E1FE013197F1F70197D9F7DBCF84B1B6
:1000E000836084B90895AC014170507060FF0BC00B
:1000F00025B181E090E002C0880F991F4A95E2F790
:10010000282B25B9089525B181E090E002C0880F21
:10011000991F4A95E2F78095822385B90895229A1E
:100120002A9A84B1886284B924988CB5837D8CBD69
:100130008DB581608DBD8CB581658CBD08953A9A71
:10014000429A08953A9A42980895FF920F931F9306
:10015000F62E072F2A98182F1170106380E090E078
:1001600061E070E00E9473001EBD0DB407FEFDCF7C
:1001700080E090E060E070E00E9473000EBD0DB47E
:1001800007FEFDCFFEBC0DB407FEFDCF2A9A1F91DE
:0A0190000F91FF900895F894FFCF3F
:00000001FF
